{
  "contractName": "MarketPlace",
  "abi": [
    {
      "constant": true,
      "inputs": [
        {
          "name": "",
          "type": "uint256"
        }
      ],
      "name": "articles",
      "outputs": [
        {
          "name": "id",
          "type": "uint256"
        },
        {
          "name": "seller",
          "type": "address"
        },
        {
          "name": "buyer",
          "type": "address"
        },
        {
          "name": "name",
          "type": "string"
        },
        {
          "name": "description",
          "type": "string"
        },
        {
          "name": "price",
          "type": "uint256"
        }
      ],
      "payable": false,
      "stateMutability": "view",
      "type": "function"
    },
    {
      "anonymous": false,
      "inputs": [
        {
          "indexed": true,
          "name": "_id",
          "type": "uint256"
        },
        {
          "indexed": true,
          "name": "_seller",
          "type": "address"
        },
        {
          "indexed": false,
          "name": "_name",
          "type": "string"
        },
        {
          "indexed": false,
          "name": "_price",
          "type": "uint256"
        }
      ],
      "name": "sellArticleEvent",
      "type": "event"
    },
    {
      "anonymous": false,
      "inputs": [
        {
          "indexed": true,
          "name": "_id",
          "type": "uint256"
        },
        {
          "indexed": true,
          "name": "_seller",
          "type": "address"
        },
        {
          "indexed": true,
          "name": "_buyer",
          "type": "address"
        },
        {
          "indexed": false,
          "name": "_name",
          "type": "string"
        },
        {
          "indexed": false,
          "name": "_price",
          "type": "uint256"
        }
      ],
      "name": "buyArticleEvent",
      "type": "event"
    },
    {
      "constant": false,
      "inputs": [
        {
          "name": "_name",
          "type": "string"
        },
        {
          "name": "_description",
          "type": "string"
        },
        {
          "name": "_price",
          "type": "uint256"
        }
      ],
      "name": "sellArticle",
      "outputs": [],
      "payable": false,
      "stateMutability": "nonpayable",
      "type": "function"
    },
    {
      "constant": true,
      "inputs": [],
      "name": "getNumberOfArticles",
      "outputs": [
        {
          "name": "",
          "type": "uint256"
        }
      ],
      "payable": false,
      "stateMutability": "view",
      "type": "function"
    },
    {
      "constant": true,
      "inputs": [],
      "name": "getArticlesForSale",
      "outputs": [
        {
          "name": "",
          "type": "uint256[]"
        }
      ],
      "payable": false,
      "stateMutability": "view",
      "type": "function"
    },
    {
      "constant": false,
      "inputs": [
        {
          "name": "_id",
          "type": "uint256"
        }
      ],
      "name": "buyArticle",
      "outputs": [],
      "payable": true,
      "stateMutability": "payable",
      "type": "function"
    },
    {
      "constant": false,
      "inputs": [],
      "name": "kill",
      "outputs": [],
      "payable": false,
      "stateMutability": "nonpayable",
      "type": "function"
    }
  ],
  "bytecode": "0x6080604052336000806101000a81548173ffffffffffffffffffffffffffffffffffffffff021916908373ffffffffffffffffffffffffffffffffffffffff160217905550610d79806100536000396000f300608060405260043610610078576000357c0100000000000000000000000000000000000000000000000000000000900463ffffffff1680631cc4baa81461007d57806341c0e1b51461009d5780637f6be3da146100b457806389da85d314610120578063d26095151461014b578063edcfafe614610204575b600080fd5b61009b6004803603810190808035906020019092919050505061038a565b005b3480156100a957600080fd5b506100b2610679565b005b3480156100c057600080fd5b506100c961070e565b6040518080602001828103825283818151815260200191508051906020019060200280838360005b8381101561010c5780820151818401526020810190506100f1565b505050509050019250505060405180910390f35b34801561012c57600080fd5b506101356108cc565b6040518082815260200191505060405180910390f35b34801561015757600080fd5b50610202600480360381019080803590602001908201803590602001908080601f0160208091040260200160405190810160405280939291908181526020018383808284378201915050505050509192919290803590602001908201803590602001908080601f0160208091040260200160405190810160405280939291908181526020018383808284378201915050505050509192919290803590602001909291905050506108d6565b005b34801561021057600080fd5b5061022f60048036038101908080359060200190929190505050610afc565b604051808781526020018673ffffffffffffffffffffffffffffffffffffffff1673ffffffffffffffffffffffffffffffffffffffff1681526020018573ffffffffffffffffffffffffffffffffffffffff1673ffffffffffffffffffffffffffffffffffffffff1681526020018060200180602001848152602001838103835286818151815260200191508051906020019080838360005b838110156102e35780820151818401526020810190506102c8565b50505050905090810190601f1680156103105780820380516001836020036101000a031916815260200191505b50838103825285818151815260200191508051906020019080838360005b8381101561034957808201518184015260208101905061032e565b50505050905090810190601f1680156103765780820380516001836020036101000a031916815260200191505b509850505050505050505060405180910390f35b60008060025411151561039c57600080fd5b6000821180156103ae57506002548211155b15156103b957600080fd5b60016000838152602001908152602001600020905060008160020160009054906101000a900473ffffffffffffffffffffffffffffffffffffffff1673ffffffffffffffffffffffffffffffffffffffff1614151561041757600080fd5b3373ffffffffffffffffffffffffffffffffffffffff168160010160009054906101000a900473ffffffffffffffffffffffffffffffffffffffff1673ffffffffffffffffffffffffffffffffffffffff161415151561047657600080fd5b34816005015414151561048857600080fd5b338160020160006101000a81548173ffffffffffffffffffffffffffffffffffffffff021916908373ffffffffffffffffffffffffffffffffffffffff1602179055508060010160009054906101000a900473ffffffffffffffffffffffffffffffffffffffff1673ffffffffffffffffffffffffffffffffffffffff166108fc349081150290604051600060405180830381858888f19350505050158015610535573d6000803e3d6000fd5b508060020160009054906101000a900473ffffffffffffffffffffffffffffffffffffffff1673ffffffffffffffffffffffffffffffffffffffff168160010160009054906101000a900473ffffffffffffffffffffffffffffffffffffffff1673ffffffffffffffffffffffffffffffffffffffff16837f1022115f3a730bbc8daef9a08e80544240a1578ecba51270e55ab8e72d626e7284600301856005015460405180806020018381526020018281038252848181546001816001161561010002031660029004815260200191508054600181600116156101000203166002900480156106665780601f1061063b57610100808354040283529160200191610666565b820191906000526020600020905b81548152906001019060200180831161064957829003601f168201915b5050935050505060405180910390a45050565b6000809054906101000a900473ffffffffffffffffffffffffffffffffffffffff1673ffffffffffffffffffffffffffffffffffffffff163373ffffffffffffffffffffffffffffffffffffffff161415156106d457600080fd5b6000809054906101000a900473ffffffffffffffffffffffffffffffffffffffff1673ffffffffffffffffffffffffffffffffffffffff16ff5b6060806000806060600080600254141561075a5760006040519080825280602002602001820160405280156107525781602001602082028038833980820191505090505b5095506108c4565b60025460405190808252806020026020018201604052801561078b5781602001602082028038833980820191505090505b50945060009350600192505b600254831115156108405760006001600085815260200190815260200160002060020160009054906101000a900473ffffffffffffffffffffffffffffffffffffffff1673ffffffffffffffffffffffffffffffffffffffff161415610833576001600084815260200190815260200160002060000154858581518110151561081c57fe5b906020019060200201818152505083806001019450505b8280600101935050610797565b8360405190808252806020026020018201604052801561086f5781602001602082028038833980820191505090505b509150600090505b838110156108c057848181518110151561088d57fe5b9060200190602002015182828151811015156108a557fe5b90602001906020020181815250508080600101915050610877565b8195505b505050505090565b6000600254905090565b60026000815480929190600101919050555060c06040519081016040528060025481526020013373ffffffffffffffffffffffffffffffffffffffff168152602001600073ffffffffffffffffffffffffffffffffffffffff168152602001848152602001838152602001828152506001600060025481526020019081526020016000206000820151816000015560208201518160010160006101000a81548173ffffffffffffffffffffffffffffffffffffffff021916908373ffffffffffffffffffffffffffffffffffffffff16021790555060408201518160020160006101000a81548173ffffffffffffffffffffffffffffffffffffffff021916908373ffffffffffffffffffffffffffffffffffffffff1602179055506060820151816003019080519060200190610a0e929190610ca8565b506080820151816004019080519060200190610a2b929190610ca8565b5060a082015181600501559050503373ffffffffffffffffffffffffffffffffffffffff166002547fe6dcabaf37bca305551877dc9bc2cb6019fbb7859c0f74c037077d948fb17c5685846040518080602001838152602001828103825284818151815260200191508051906020019080838360005b83811015610abc578082015181840152602081019050610aa1565b50505050905090810190601f168015610ae95780820380516001836020036101000a031916815260200191505b50935050505060405180910390a3505050565b60016020528060005260406000206000915090508060000154908060010160009054906101000a900473ffffffffffffffffffffffffffffffffffffffff16908060020160009054906101000a900473ffffffffffffffffffffffffffffffffffffffff1690806003018054600181600116156101000203166002900480601f016020809104026020016040519081016040528092919081815260200182805460018160011615610100020316600290048015610bfa5780601f10610bcf57610100808354040283529160200191610bfa565b820191906000526020600020905b815481529060010190602001808311610bdd57829003601f168201915b505050505090806004018054600181600116156101000203166002900480601f016020809104026020016040519081016040528092919081815260200182805460018160011615610100020316600290048015610c985780601f10610c6d57610100808354040283529160200191610c98565b820191906000526020600020905b815481529060010190602001808311610c7b57829003601f168201915b5050505050908060050154905086565b828054600181600116156101000203166002900490600052602060002090601f016020900481019282601f10610ce957805160ff1916838001178555610d17565b82800160010185558215610d17579182015b82811115610d16578251825591602001919060010190610cfb565b5b509050610d249190610d28565b5090565b610d4a91905b80821115610d46576000816000905550600101610d2e565b5090565b905600a165627a7a72305820af3caf7e97c52266b3dec4b71e5961761378d49947c2ddb4c6071e740655f2f00029",
  "source": "pragma solidity ^0.4.11;\n\nimport \"./Owned.sol\";\n\ncontract MarketPlace is Owned {\n\n  // Custom types\n  struct Article {\n    uint id;\n    address seller;\n    address buyer;\n    string name;\n    string description;\n    uint256 price;\n  }\n\n  // State variables\n  mapping(uint => Article) public articles;\n  uint articleCounter;\n\n  //Events\n  event sellArticleEvent(\n    uint indexed _id,\n    address indexed _seller,\n    string _name,\n    uint256 _price);\n\n  event buyArticleEvent(\n    uint indexed _id,\n    address indexed _seller,\n    address indexed _buyer,\n    string _name,\n    uint256 _price);\n\n\n  //sell an article\n  function sellArticle(string _name, string _description, uint256 _price) public {\n    // a new article\n    articleCounter++;\n\n    //store this article\n    articles[articleCounter] = Article(\n        articleCounter,\n        msg.sender,\n        0x0,\n        _name,\n        _description,\n        _price\n      );\n\n    // trigger the event\n    sellArticleEvent(articleCounter, msg.sender, _name, _price);\n  }\n\n  // fetch the number of articles in the contract\n  function getNumberOfArticles() public constant returns (uint) {\n    return articleCounter;\n  }\n\n  // fetch and returns all article IDs available for sale\n  function getArticlesForSale() public constant returns (uint[]) {\n    // we check whether there is at least one article\n    if(articleCounter == 0) {\n      return new uint[](0);\n    }\n\n    // prepare intermediary array\n    uint[] memory articleIds = new uint[](articleCounter);\n\n    uint numberOfArticlesForSale = 0;\n    // iterate over articles\n    for (uint i = 1; i <= articleCounter; i++) {\n      // keep only the ID of articles not sold yet\n      if (articles[i].buyer == 0x0) {\n        articleIds[numberOfArticlesForSale] = articles[i].id;\n        numberOfArticlesForSale++;\n      }\n    }\n\n    // copy the articleIds array into the smaller forSale array\n    uint[] memory forSale = new uint[](numberOfArticlesForSale);\n    for (uint j = 0; j < numberOfArticlesForSale; j++) {\n      forSale[j] = articleIds[j];\n    }\n    return (forSale);\n  }\n\n  // buy an article\n  function buyArticle(uint _id) payable public {\n    // we check whether there is at least one article\n    require(articleCounter > 0);\n\n    // we check whether the article exists\n    require(_id > 0 && _id <= articleCounter);\n\n    // we retrieve the article\n    Article storage article = articles[_id];\n\n    // we check whether the article has not already been sold\n    require(article.buyer == 0x0);\n\n    // we don't allow the seller to buy his/her own article\n    require(article.seller != msg.sender);\n\n    // we check whether the value sent corresponds to the article price\n    require(article.price == msg.value);\n\n    // keep buyer's information\n    article.buyer = msg.sender;\n\n    // the buyer can buy the article\n    article.seller.transfer(msg.value);\n\n    // trigger the event\n    buyArticleEvent(_id, article.seller, article.buyer, article.name, article.price);\n  }\n\n  //kill the smart contract\n  function kill() onlyOwner {\n    selfdestruct(owner);\n  }\n}\n",
  "sourcePath": "C:\\Users\\hp\\Desktop\\blendit\\contracts\\MarketPlace.sol",
  "compiler": {
    "name": "solc",
    "version": "0.4.25+commit.59dbf8f1.Emscripten.clang"
  },
  "schemaVersion": "2.0.2",
  "updatedAt": "2019-03-07T08:54:07.317Z"
}